{
  "contractName": "SimpleCounter",
  "abi": [
    {
      "inputs": [],
      "stateMutability": "nonpayable",
      "type": "constructor"
    },
    {
      "inputs": [],
      "name": "count",
      "outputs": [
        {
          "internalType": "uint256",
          "name": "",
          "type": "uint256"
        }
      ],
      "stateMutability": "view",
      "type": "function",
      "constant": true
    },
    {
      "inputs": [],
      "name": "increment",
      "outputs": [],
      "stateMutability": "nonpayable",
      "type": "function"
    },
    {
      "inputs": [],
      "name": "decrement",
      "outputs": [],
      "stateMutability": "nonpayable",
      "type": "function"
    }
  ],
  "bytecode": "0x608060405234801561001057600080fd5b50600080819055506101b5806100276000396000f3fe608060405234801561001057600080fd5b50600436106100415760003560e01c806306661abd146100465780632baeceb714610064578063d09de08a1461006e575b600080fd5b61004e610078565b60405161005b91906100cd565b60405180910390f35b61006c61007e565b005b610076610099565b005b60005481565b60016000808282546100909190610117565b92505081905550565b60016000808282546100ab919061014b565b92505081905550565b6000819050919050565b6100c7816100b4565b82525050565b60006020820190506100e260008301846100be565b92915050565b7f4e487b7100000000000000000000000000000000000000000000000000000000600052601160045260246000fd5b6000610122826100b4565b915061012d836100b4565b9250828203905081811115610145576101446100e8565b5b92915050565b6000610156826100b4565b9150610161836100b4565b9250828201905080821115610179576101786100e8565b5b9291505056fea26469706673582212208472faf1c2bd814d974340b7ccbbcffa70cfc092095fb8c3788249d74fd3379264736f6c63430008110033",
  "immutableReferences": {},
  "source": "// SPDX-License-Identifier: MIT\r\npragma solidity ^0.8.0;\r\n\r\ncontract SimpleCounter {\r\n    uint256 public count;\r\n\r\n    constructor() {\r\n        count = 0;\r\n    }\r\n\r\n    function increment() public {\r\n        count += 1;\r\n    }\r\n\r\n    function decrement() public {\r\n        count -= 1;\r\n    }\r\n}\r\n",
  "sourcePath": "F:\\Prj\\Practices\\Simple Dapp\\Smart_Contracts\\contracts\\SimpleCounter.sol",
  "compiler": {
    "name": "solc",
    "version": "0.8.17+commit.8df45f5f.Emscripten.clang"
  },
  "schemaVersion": "3.4.15",
  "updatedAt": "2023-08-23T12:52:40.540Z",
  "networkType": "ethereum",
  "devdoc": {
    "kind": "dev",
    "methods": {},
    "version": 1
  },
  "userdoc": {
    "kind": "user",
    "methods": {},
    "version": 1
  }
}